:020000040800F2
:100000000050002081360008C92B0008CF2B0008C3
:10001000D52B0008DB2B0008E12B000800000000B6
:10002000000000000000000000000000E72B0008B6
:10003000F32B000800000000FF2B00080B2C000829
:10004000C9360008C9360008C9360008C936000894
:10005000C9360008C9360008C9360008172C000840
:10006000C9360008C9360008C9360008C936000874
:10007000C9360008C9360008C9360008C936000864
:10008000C9360008C9360008C9360008C936000854
:10009000C9360008C9360008C9360008C936000844
:1000A000C9360008C9360008C9360008C936000834
:1000B000C9360008252C0008C9360008C9360008D2
:1000C000C9360008C9360008C9360008392C0008AE
:1000D000C9360008C9360008C9360008C936000804
:1000E000C9360008C9360008C936000800000000FB
:1000F0000000000000000000000000000000000000
:0C01000000000000000000005FF808F1A3
:10010C0010B5054C237833B9044B13B10448AFF345
:10011C0000800123237010BDA80000200000000007
:10012C000866000808B5034B1BB103490348AFF33D
:10013C00008008BD00000000AC000020086600082C
:10014C00034613F8012B002AFBD1181A013870470B
:10015C0080B485B000AFF860B9607A60FB68BA68AB
:10016C005A60FB687A681A6000BF1437BD4680BCC1
:10017C00704780B483B000AF78607B681B684FF623
:10018C00FF72934203D07B681B68013300E00123AC
:10019C007A6813607B681B6818460C37BD4680BCB8
:1001AC007047F0B587B000AFF860B9607A604FF077
:1001BC00FF337B6100233B6118E0FB681B6D9C687F
:1001CC00FB681D6DFB681A693B69D618786801F0ED
:1001DC0007FF0346BA6831462846A04778617B6919
:1001EC00002B0EDB3A697B6913443B613A69BB68AF
:1001FC009A4207DA786801F0B7FE0346002BDCD090
:10020C0000E000BF3A69BB689A420BD1FB6803F16E
:10021C005402FB689B691946104601F0CBFE002383
:10022C007B6102E04FF0FF337B617B6918461C3722
:10023C00BD46F0BD80B586B000AFF860B9607A609D
:10024C003B60FB68BA681A6500237B6109E0FA68B9
:10025C007B690433DB00134400225A607B69013351
:10026C007B617B69042BF2DDFB687A685A60FB6862
:10027C003A681A61FB683A6A9A60FB687A6A5A6152
:10028C00FB68BA6ADA60FB6800221A62FB6800221B
:10029C001A77FB680022DA64FB6801221A60FB689B
:1002AC005433184601F053FE00BF1837BD4680BDCD
:1002BC0090B58BB000AFF860B9607A6001237B62B7
:1002CC0000233B620423FB61BB6800221A604FF0E1
:1002DC00FF33BB613B6A01333B623A6AFB699A426A
:1002EC0003DD4FF0FF33BB6121E0FB681B6D5C68E5
:1002FC00FB68186D07F117017B680122A047B861F4
:10030C00BB69012B12D1BB681A68FB7D03F07F031C
:10031C00796A01FB03F31A44BB681A607B6ADB0140
:10032C007B62FB7D5BB2002BD1DB00E000BF3B6A44
:10033C0018462C37BD4690BDF0B589B000AFF860BB
:10034C00B9604FF0FF33FB6100237B610023BB617D
:10035C0000233B61FB681B6D5C68FB681D6DFB68D3
:10036C005E69B86801F03CFE03460122314628461E
:10037C00A0470346012B3BD10123BB61B86801F0B8
:10038C002FFE024607F110031946F868FFF790FF9D
:10039C00FB685B6901333A691146184600F003FFAC
:1003AC000246BB691344BB613B69002B16DDFB683D
:1003BC001B6D5C68FB681D6DFB685A69BB69D618C0
:1003CC003B697B60B86801F00BFE03467A683146E6
:1003DC002846A04702463B699A420BD1FB685B69F1
:1003EC001B783B753B7DC3F30313DBB2FB6102E06F
:1003FC0000BF00E000BFFB6918462437BD46F0BDC6
:10040C0080B487B000AF786039607B687B613B68F3
:10041C009B683B613B685B681A463B691344BB6055
:10042C0039E03B691B782F2B03D17B691B782F2B71
:10043C003AD17B691B782B2B09D07B691B78232B3A
:10044C0005D07B691A783B691B789A422ED17B695F
:10045C001B782B2B12D13B690133FB6005E03B6908
:10046C0001333B613B690133FB60FA68BB689A421C
:10047C000BD2FB681B782F2BF1D106E07B691B7824
:10048C00232B02D1BB68013B3B617B6901337B6150
:10049C003B6901333B617B691B78002B07D03A69C0
:1004AC00BB689A42BDD302E000BF00E000BF3A69CE
:1004BC00BB689A4205D17B691B78002B01D10123C3
:1004CC0000E00023DBB218461C37BD4680BC7047E9
:1004DC0080B58AB000AFF860B9607A604FF0FF3336
:1004EC003B6200237B623FE0FA687B6A0433DB00EB
:1004FC0013445B68002B34D0FA687B6A0433DB004E
:10050C0013445B681946B86801F018F80346002BD1
:10051C000CD1FA687B6A0433DB0013445B68B9685E
:10052C001846FFF76DFF0346002B1AD0FA687B6A5A
:10053C000433DB0013449B68002B12D007F1180323
:10054C007A68B9681846FFF703FEFA687B6A0433C9
:10055C00DB0013449B6807F11802104698470023F0
:10056C003B627B6A01337B627B6A042BBCDD3B6A9A
:10057C00B3F1FF3F12D1FB68DB6C002B0ED007F1FF
:10058C0010037A68B9681846FFF7E2FDFB68DB6C6C
:10059C0007F110021046984700233B623B6A18464D
:1005AC002837BD4680BD80B586B000AF78604FF06F
:1005BC00FF337B617B689B69002B02D100237B613D
:1005CC0033E07B685433184601F0CEFC0346002B15
:1005DC002AD07B681B7F002B26D107F10803184615
:1005EC0001F0B5FC07F108034FF47A71184601F0DD
:1005FC00CFFC7B681A697B689B681946104600F033
:10060C0006FD38613B69002B0FDD07F108031A4624
:10061C0039697868FFF7C5FD78617B69002B04D1D7
:10062C007B6801221A7700E000BF7B6918461837F7
:10063C00BD4680BDF0B595B006AF786039603968BD
:10064C007868FFF779FE0346FB8500237B63002364
:10065C003B63FB8D023B0B2B00F2C08001A252F8D6
:10066C0023F000BFE9070008A1060008E90700080D
:10067C0069070008E9070008E9070008E90700080E
:10068C00E9070008E9070008E9070008E90700087E
:10069C00DB0700087B685B697A68D268164607F14D
:1006AC001002151D07F11002541C07F10C0107F183
:1006BC001002901C0496039307F110030C33029361
:1006CC0007F110030833019307F1200300932B4625
:1006DC00224600F0ABFC0346012B40F08380FB6804
:1006EC00DBB23B7407F1100207F12003194678685E
:1006FC00FFF7EEFE3B7C002B6DD03B7C012B0CD12D
:10070C007B6818697B689B681946BB8A0093002339
:10071C00042200F0E0FF78630EE03B7C022B0BD14F
:10072C007B6818697B689B681946BB8A0093002319
:10073C00052200F0D0FF78637B6B002B03DC4FF0BD
:10074C00FF333B6305E03A68796B7868FFF729FD66
:10075C0038633B6BB3F1FF3F3DD144E07B685C6990
:10076C007B68DB6807F10A0207F1090107F1080051
:10077C000093234600F0CCFC0346012B03D04FF032
:10078C00FF333B631EE07B6818697B689B681946E6
:10079C007B8900930023062200F09DFF78637B6B1E
:1007AC00002B03DC4FF0FF333B630BE03A68796BB3
:1007BC007868FFF7F6FC38633B6B002B02D04FF0E8
:1007CC00FF333B633B6BB3F1FF3F06D10BE07B6820
:1007DC0000221A7702E000BF00E000BF7868FFF744
:1007EC00E2FE00E000BF3B6B002B01D1FB8D3B63B5
:1007FC003B6B18463C37BD46F0BD00BF80B586B09C
:10080C0000AF7860396000237B6107F10C03184658
:10081C0001F09DFB3A6807F10C031146184601F0F4
:10082C00B7FB07F10C0319467868FFF703FF034683
:10083C00B3F1FF3F02D14FF0FF337B617B69184668
:10084C001837BD4680BD80B586B000AFF860B96082
:10085C007A604FF0FF337B61786801F085FB0346CB
:10086C00002B09D17968F868FFF7E4FE78617A69A2
:10087C00BB689A42F0D100E000BF7B69184618377C
:10088C00BD4680BD80B59EB000AF786039604FF03A
:10089C00FF337B673D4A07F1100311465822184677
:1008AC0005F016FA00233B677B681B6A002B5DD1B1
:1008BC0007F16803184601F04AFB7B685A6807F198
:1008CC0068031146184601F063FB3B68002B02D10C
:1008DC0007F110033B603B681B8B1A467B689A61DF
:1008EC007B6803F154027B689B691946104601F042
:1008FC0061FB7B6818697B689B683A68194600F055
:10090C000DFA38673B6F002B32DD07F168031A468E
:10091C00396F7868FFF745FC78677B6F002B29D11E
:10092C0007F168031A4602217868FFF78CFF03462B
:10093C00022B17D1FF23FB730023BB737B685A690F
:10094C007B68DB6807F10F0107F10E0000F0D2FAAB
:10095C000346012B02D1FB7B7B670CE04FF0FF338E
:10096C007B6708E04FF0FF337B6704E000BF02E0D9
:10097C0000BF00E000BF7B6F002B02D17B6801221F
:10098C001A627B6F18467837BD4680BD206600081A
:10099C00B0B594B004AFF860B9603B601346FB711E
:1009AC004FF0FF33FB6300237B6300233B62002388
:1009BC007B620023BB62BB683B62FB681B6A002B3B
:1009CC0000F0828007F12C03184601F0C0FAFB6896
:1009DC005A6807F12C031146184601F0D9FAFB6846
:1009EC001C69FB689B681D46F868FFF7C2FB034651
:1009FC009AB2FB1D029307F120030193012300938C
:100A0C00134600222946204600F0E1FE78637B6BFA
:100A1C00002B5BDD07F12C031A46796BF868FFF7A6
:100A2C00C0FBF863FB6B002B52D107F12C031A4669
:100A3C000921F868FFF707FF0346092B40D1002373
:100A4C00FB614FF0FF33BB61FB685B69FA68D268EE
:100A5C00144607F1180107F11C0207F11600019466
:100A6C0000930B46012100F02EFF0346012B01D110
:100A7C00BB69FB63FB6B802B2BD00023BB631BE0A0
:100A8C00FA68BB6B0433DB0013445B68002B10D19A
:100A9C00FA68BB6B0433DB001344BA685A60FA681B
:100AAC00BB6B0433DB0013443A689A600023FB638E
:100ABC000FE0BB6B0133BB63BB6B042BE0DD08E0C9
:100ACC004FF0FF33FB6304E000BF02E000BF00E027
:100ADC0000BFFB6B18464037BD46B0BDF0B597B0B4
:100AEC0008AFF860B9607A604FF0FF337B63002386
:100AFC00FB6100233B6200237B62BB68FB6100232C
:100B0C003B63FB681B6A002B00F09B8007F12803FA
:100B1C00184601F01CFAFB685A6807F128031146C5
:100B2C00184601F035FA7B681B78012B03D07B68E3
:100B3C001B78022B06D1F868FFF71BFB03469AB211
:100B4C007B689A80FB681B693B60FB689B689C46D2
:100B5C007B681B789E467B685D787B689E887B688B
:100B6C009B687A68D2680692059302AC07F11C0365
:100B7C0093E8070084E8070001960095734600226D
:100B8C006146386800F031FD38633B6B002B5ADD51
:100B9C0007F128031A46396BF868FFF702FB7863F4
:100BAC007B6B002B51D17B681B78012B22D107F179
:100BBC0028031A460421F868FFF745FE0346042B68
:100BCC0014D1FB685C69FB68DB6807F11A0207F15A
:100BDC00190107F118000093234600F099FA034617
:100BEC00012B35D04FF0FF337B6331E04FF0FF33F7
:100BFC007B632DE07B681B78022B28D107F128033F
:100C0C001A460721F868FFF71EFE0346072B14D17E
:100C1C00FB685C69FB68DB6807F1160207F11501DC
:100C2C0007F114000093234600F072FA0346012BDF
:100C3C000ED04FF0FF337B630AE04FF0FF337B6342
:100C4C0006E000BF04E000BF02E000BF00E000BF10
:100C5C007B6B18463C37BD46F0BD90B585B000AFF8
:100C6C0078600023FB607B681B7A032B02D10C237A
:100C7C00FB6005E07B681B7A042B01D10A23FB6027
:100C8C007B680C3393E8070000F03FFC034602330B
:100C9C00FA681344FB607B68DB7E002B13D07B6807
:100CAC00243393E8070000F030FC03469C1C7B685F
:100CBC00303393E8070000F028FC0346234402334A
:100CCC00FA681344FB607B681B6C002B03D17B68B8
:100CDC009B6C002B0AD07B68403393E8070000F034
:100CEC0014FC03460233FA681344FB607B68DB6C2C
:100CFC00002B03D17B685B6D002B0AD07B684C33D7
:100D0C0093E8070000F001FC03460233FA68134431
:100D1C00FB60FB6818461437BD4690BD80B58AB0A1
:100D2C0000AFF860B9607A60FB68FB610023BB61BF
:100D3C0000237B6100233B624FF0FF337B627868BA
:100D4C00FFF78BFF3862386A00F098FA0246BB68EE
:100D5C00934203DA6FF001037B62C2E000233B761F
:100D6C003B7E012262F307133B763A7E07F11C03AC
:100D7C001146184600F00FFBFB69396A184600F063
:100D8C0012FA0246FB691344FB617B681B7A042B45
:100D9C000CD107F11C035549184600F038FB07F13C
:100DAC001C030421184600F0F6FA0BE007F11C03B3
:100DBC004F49184600F02BFB07F11C030321184682
:100DCC0000F0E9FA00233B757B689B7E03F001037E
:100DDC00DAB23B7D62F341033B757B68DB7E002B13
:100DEC0014BF01230023DAB23B7D62F382033B750F
:100DFC003B7D03F00403DBB2002B13D07B6893F82C
:100E0C003D3003F00303DAB23B7D62F3C4033B7560
:100E1C007B6893F83C3003F00103DAB23B7D62F35C
:100E2C0045133B757B681B6C002B03D17B689B6C5B
:100E3C00002B03D03B7D43F080033B757B68DB6C60
:100E4C00002B03D17B685B6D002B03D03B7D43F003
:100E5C0040033B753A7D07F11C031146184600F020
:100E6C009AFA7B681B8B1A4607F11C03114618462D
:100E7C0000F0A5FA7B6807F11C000C330ECB00F0D8
:100E8C00E5FA7B68DB7E002B0DD07B6807F11C003C
:100E9C0024330ECB00F0DAFA7B6807F11C003033F8
:100EAC000ECB00F0D3FA3B7D23F07F03DBB2002B9B
:100EBC0006D07B6807F11C0040330ECB00F0C6FA5D
:100ECC003B7D03F04003DBB2002B06D07B6807F1BF
:100EDC001C004C330ECB00F0B9FAFA69FB68D31A3C
:100EEC007B627B6A18462837BD4680BD7866000851
:100EFC008066000880B58AB000AFF860B9607A608F
:100F0C003B600023FB617B68BB6100233B620023D9
:100F1C007B6200233B6107F11803184600F028FAA6
:100F2C0003463B773B7F23F00F03DBB2202B2ED104
:100F3C00BB6907F114021146184600F0E9F9786212
:100F4C007A6ABB691344BB61BB697A6913443B621F
:100F5C00BB693A6AD31A012B1BDD07F1180318463B
:100F6C0000F006FA03463B743B7CC3F3C013DBB2C0
:100F7C001A46FB681A7007F11803184600F0F8F9C6
:100F8C0003461A46BB681A7001237B6202E000BF5D
:100F9C0000E000BF7B6A18462837BD4680BD80B58F
:100FAC0088B000AFF860B9601346FB710023BB61D9
:100FBC004FF0FF33FB61FB687B61BB68012B03DCEB
:100FCC006FF00103FB611DE000233B76FB7903F01E
:100FDC000F03DAB23B7E62F307133B763A7E07F1DE
:100FEC0014031146184600F0D6F97B690021184607
:100FFC0000F0D9F802467B6913447B617A69FB687F
:10100C00D31AFB61FB6918462037BD4680BD80B5FD
:10101C0082B000AF786039600C2239687868FFF7CD
:10102C00BEFF034618460837BD4680BD80B58AB062
:10103C0000AFF860B9607A603B600023FB61FB6B2A
:10104C00BB6100233B6200237B6200237B6107F1C1
:10105C001803184600F08CF903463B773B7F23F0CE
:10106C000F03DBB2302B4BD13B7FC3F3C003DBB29E
:10107C001A46FB681A703B7FC3F34103DBB21A4676
:10108C00BB681A603B7FC3F30003DBB21A467B6874
:10109C001A70BB6907F114021146184600F038F9B2
:1010AC0078627A6ABB691344BB61BB697A69134481
:1010BC003B6207F118033A6A1946386B00F0F4F9F1
:1010CC000346002B1ED0BB693A6AD31A002B19DBDE
:1010DC00BB681B68002B08DD07F11803184600F0ED
:1010EC002DF903469AB23B681A80BB693A6AD21A48
:1010FC00BB6B1A60BA697B6B1A6001237B6202E0DE
:10110C0000BF00E000BF7B6A18462837BD4680BD93
:10111C0080B58AB000AFF860B9607A603B6000239C
:10112C00FB613B68BB6100233B6200237B6207F1E0
:10113C001803184600F01CF903463B773B7FC3F3BA
:10114C00C003DBB21A46BB681A703B7FC3F30313B0
:10115C00DBB21A46FB681A70BB6907F11402114620
:10116C00184600F0D5F878627A6ABB691344BB6103
:10117C00BB697A6913443B62BB693A6AD31A012B87
:10118C000BDD07F11803184600F0D8F803469AB2A5
:10119C007B681A8001237B6200E000BF7B6A1846E3
:1011AC002837BD4680BD80B485B000AF786039600B
:1011BC000023FB603B685A4203F07F0302F07F027E
:1011CC0058BF5342FB723B68002B00DA7F33DB11B4
:1011DC003B603B68002B03DDFB7A63F07F03FB7203
:1011EC00FB685A1CFA601A467B681344FA7A1A7028
:1011FC003B68002BDEDCFB6818461437BD4680BC10
:10120C00704780B586B000AF7860396001237B6190
:10121C0000233B613B6800221A604FF0FF33FB60F8
:10122C003B6901333B613B69042B03DD4FF0FF331A
:10123C00FB601DE007F10B027B680121104698470B
:10124C00F860FB68012B12D13B681A68FB7A03F03B
:10125C007F03796901FB03F31A443B681A607B69CD
:10126C00DB017B61FB7A5BB2002BD6DB00E000BFBD
:10127C003B6918461837BD4680BD000080B483B06A
:10128C0000AF78607B6801337B607B687F2B03DC6D
:10129C007B6801337B6012E07B68B3F5804F03DA27
:1012AC007B6802337B600AE07B68084A934203DC6C
:1012BC007B6803337B6002E07B6804337B607B6874
:1012CC0018460C37BD4680BC704700BFFEFF1F00A0
:1012DC0080B485B000AF786039600023FB600AE011
:1012EC000A4B1B685A1C09490A601A787B681A70E9
:1012FC00FB680133FB60FA683B689A42F0DB3B68A1
:10130C0018461437BD4680BC704700BFC40000208F
:10131C0080B582B000AF78603960064A7B68136094
:10132C0039680548FFF76DFF034618460837BD4678
:10133C0080BD00BFC4000020DD12000880B485B061
:10134C0000AF78607B681B68FB60FB681B781B0236
:10135C00FA68013212781344BB607B681B689A1CD4
:10136C007B681A60BB6818461437BD4680BC704752
:10137C0080B485B000AF78607B681B681B78FB730A
:10138C007B681B685A1C7B681A60FB7B18461437F9
:10139C00BD4680BC704780B483B000AF78600B460C
:1013AC00FB707B681B68FA781A707B681B685A1C88
:1013BC007B681A6000BF0C37BD4680BC704780B498
:1013CC0083B000AF786039603B68002B00DAFF33E4
:1013DC001B121A467B681B68D2B21A707B681B689A
:1013EC005A1C7B681A603B685A42DBB2D2B258BFB7
:1013FC0053427A681268DBB213707B681B685A1C04
:10140C007B681A6000BF0C37BD4680BC704780B546
:10141C0084B000AF786039603868FEF791FE0346FF
:10142C00FB60F9687868FFF7CAFF7B681B68FA688D
:10143C003968184604F04CFC7B681A68FB681A443F
:10144C007B681A6000BF1037BD4680BD80B584B084
:10145C0000AFF860384680E80E007B68002B12DD88
:10146C007B681946F868FFF7AAFFFB681B68B96828
:10147C007A68184604F02CFCFB681B687A681A44DE
:10148C00FB681A600CE03B68002B05D03B681946E2
:10149C00F868FFF7BCFF03E00021F868FFF78FFF47
:1014AC0000BF1037BD4680BD80B586B000AFF86078
:1014BC00B9607A6000237B61BB681B687A68D31AB9
:1014CC00012B1ADDB868FFF739FF0246FB685A603A
:1014DC00BB681B68FA68526813447A689A420CD34A
:1014EC00BB681A68FB689A60BB681B68FA6852682C
:1014FC001A44BB681A6001237B61FB6800221A60E6
:10150C007B6918461837BD4680BD80B586B000AFE4
:10151C003B1D83E8070000237B617B68002B06D012
:10152C007B681846FEF70CFE03467B6101E0BB6846
:10153C007B617B6918461837BD4680BD80B586B087
:10154C0000AF7860396000237B610023FB607B680F
:10155C001B68002B0AD07B681B683B617B681B688F
:10156C001846FEF7EDFD03467B6105E07B689B6842
:10157C003B617B685B687B613868FEF7E1FD034685
:10158C00FB607A69FB689A420AD17B691A46396812
:10159C00386904F0D3FB0346002B01D1012300E092
:1015AC00002318461837BD4680BD80B586B000AF05
:1015BC00F860384680E80E0000237B613B4693E8D8
:1015CC000700FFF7A2FF03469A1C3B6A13447A6993
:1015DC0013447B61FB68002B02DD7B6902337B616A
:1015EC007B6918461837BD4680BD80B58AB002AFFE
:1015FC00F860B9603B601346FB71FB687B610023AC
:10160C003B610023BB610023FB613B6C009307F142
:10161C0030030ECB3868FFF7C8FFB861B869FFF725
:10162C002DFE0246BB68934203DA6FF00103FB61A7
:10163C004CE03B7C032262F307133B74FB7903F011
:10164C000103DAB23B7C62F3C3033B743B6803F0E7
:10165C000303DAB23B7C62F342033B7497F8283005
:10166C0003F00103DAB23B7C62F300033B743A7C77
:10167C0007F1140311461846FFF78DFE7B69B96913
:10168C001846FFF790FD02467B6913447B6107F116
:10169C00140007F130030ECBFFF7D8FE3B68002B8C
:1016AC0006DDBA8D07F1140311461846FFF787FEC5
:1016BC007B693A6CF96B184604F00AFB7A693B6C4F
:1016CC0013447B617A69FB68D31AFB61FB6918468A
:1016DC002037BD4680BD80B588B000AFF860B960DA
:1016EC0011461A460B46FB711346BB710023BB61B6
:1016FC000023FB61FB687B61BB68032B03DC6FF091
:10170C000103FB6137E0FB7903F00F03DAB23B7E98
:10171C0062F307133B76BB7903F00103DAB23B7E2D
:10172C0062F3C3033B76FB79062B0CBF012300232A
:10173C00DBB203F00303DAB23B7E62F342033B7687
:10174C003A7E07F1140311461846FFF724FE7B6915
:10175C0002211846FFF727FD02467B6913447B6183
:10176C003A8D07F1140311461846FFF728FE7A69E3
:10177C00FB68D31AFB61FB6918462037BD4680BD58
:10178C0080B584B000AF786039600223BB60002361
:10179C00FB6013E0FA6813465B0013449B001A4687
:1017AC003B68134493E80700FFF7AFFE034603338F
:1017BC00BA681344BB60FB680133FB60FA687B6852
:1017CC009A42E7DBBB6818461037BD4680BD80B532
:1017DC008AB000AFF860B96011461A460B46FB712F
:1017EC001346BB80FB68BB6100237B610023FB615C
:1017FC0000237B6200233B62796B386BFFF7C0FFE1
:10180C00F861F869FFF73AFD0246BB68934203DAC8
:10181C006FF001037B6251E000233B753B7D082296
:10182C0062F307133B75FB7903F00103DAB23B7DDE
:10183C0062F3C3033B753B7D012262F342033B75AC
:10184C003A7D07F1180311461846FFF7A4FDBB6952
:10185C00F9691846FFF7A7FC0246BB691344BB6144
:10186C00BA8807F1180311461846FFF7A8FD0023A4
:10187C003B621BE03A6A13465B0013449B001A461A
:10188C007B6B134407F118000ECBFFF7DFFD3B6AAF
:10189C009B00BA6B13441B68DAB207F118031146AC
:1018AC001846FFF778FD3B6A01333B623A6A3B6BA3
:1018BC009A42DFDBBA69FB68D31A7B627B6A1846F3
:1018CC002837BD4680BD80B58AB000AFF860B960DE
:1018DC007A603B600023FB613B6BBB6100233B6286
:1018EC0000237B6207F118031846FFF741FD0346FE
:1018FC003B773B7F23F00F03DBB2902B42D1BB69CC
:10190C0007F1140211461846FFF702FD78627A6A55
:10191C00BB691344BB61BB697A6913443B62BB6905
:10192C003A6AD31A012B2FDD07F118031846FFF77B
:10193C0005FD03469AB2FB681A807B6800221A6088
:10194C0019E07B681B68BA689A4203DA4FF0FF33E0
:10195C007B621AE007F118031846FFF709FD0346EE
:10196C0018467B681B68591C7A6811609B003A68A2
:10197C00134402461A60BB693A6A9A42E1D80123C1
:10198C007B6202E000BF00E000BF7B6A184628378C
:10199C00BD4680BD80B582B000AF78604FF48051F9
:1019AC00034802F04CFA00BF0837BD4680BD00BFAB
:1019BC000008014080B400AF0C4B0D4A1A600B4B71
:1019CC0000225A60094B0B4A9A60084B00221A738A
:1019DC00064B094A9A61094B1B68044AD361034BB5
:1019EC0000221A6200BFBD4680BC70479C090020D3
:1019FC00886600089466000800000020040000209F
:101A0C0080B582B000AF78607B681B68094A93424E
:101A1C000BD1094803F050FD00224FF480410748D8
:101A2C0002F0F5F9064B00221A7000BF0837BD46CC
:101A3C0080BD00BF000400402009002000100140C0
:101A4C006809002080B584B000AF0346FB800121FB
:101A5C000F4802F0C5F90346FB730E4B1B78002BA5
:101A6C0013D10D4803F0D6FC0A4B01221A70FB7BF4
:101A7C00012B09D0094B01221A7001224FF480412D
:101A8C00074802F0C4F900E000BF1037BD4680BD26
:101A9C000008014068090020200900206909002085
:101AAC000010014080B5BEB004AF01F009FE00F09B
:101ABC00C9F800F09BF900F00BF900F03FF9FFF7C3
:101ACC0079FF4E4A07F1DC0392E8030018600433F7
:101ADC0019804B4BC7F8D8306FF07F43C7F8D43020
:101AEC00484BC7F8D03007F1D00307F1D40207F107
:101AFC00D80107F1DC0001F0C3FB0023C7F8E43088
:101B0C0007F15C030021184600F07EFA3E4B1A6880
:101B1C0007F15C033D49184600F0E8FA07F16C0345
:101B2C0007F15C014FF400620292394A019264227F
:101B3C0000924FF47A723748FEF77CFB364A3B1D15
:101B4C0011465822184604F0C3F80023FB770323F0
:101B5C003B73324B1B683B61304B1B697B642F4BD7
:101B6C005B693B653C23BB830123BB772C4B002279
:101B7C001A702B4B00225A70294B2A4A9A6000BFCC
:101B8C003B1D19462348FEF77DFE0346002BF7D17B
:101B9C0000BF224B1A7B244B24491E48FEF7F8FE4B
:101BAC000346002BF5D101224FF40051204802F0DE
:101BBC002EF900224FF480411D4802F028F9BB8B0E
:101BCC0019461448FEF71AFE1A4B1B78012BF6D156
:101BDC00194B1B781A461949124804F08FF8114812
:101BEC00FEF7AEFA03460E4AD3600D4A1449094873
:101BFC00FEF774FF0F4B00221A70E0E7C86600086E
:101C0C00C0A80190C0A80101040000200000002021
:101C1C0020010020C0090020D06600089C0900208B
:101C2C006C0900207C090020A119000898660008A6
:101C3C0000100140690900206A090020A86600080C
:101C4C00B466000880B590B000AF07F118032822E5
:101C5C000021184604F04AF83B1D00221A605A6015
:101C6C009A60DA601A610123BB614FF48033FB6127
:101C7C0000233B620123BB6202237B634FF480335E
:101C8C00BB634FF4E013FB6307F11803184602F033
:101C9C0007F90346002B01D000F054F90F237B60A9
:101CAC000223BB600023FB604FF480633B61002385
:101CBC007B613B1D0221184602F074FB0346002B8E
:101CCC0001D000F03FF900BF4037BD4680BD000099
:101CDC0080B500AF174B184A1A60164B4FF482723E
:101CEC005A60144B00229A60124B0022DA60114B9E
:101CFC0000221A610F4B00225A610E4B4FF40072F6
:101D0C009A610C4B1022DA610A4B00221A62094BC1
:101D1C0000225A62074B00229A62064B0A22DA62B0
:101D2C00044802F09BFC0346002B01D000F00AF99A
:101D3C0000BF80BDC80000200030014080B586B0D7
:101D4C0000AF07F1080300221A605A609A60DA604B
:101D5C003B4600221A605A60224B234A1A60214BE0
:101D6C0041F61F425A601F4B00229A601D4B4EF6E3
:101D7C006022DA601B4B00221A611A4B00229A6116
:101D8C00184803F0F7FA0346002B01D000F0DAF8FC
:101D9C004FF48053BB6007F108031946114803F058
:101DAC001AFD0346002B01D000F0CCF808210D4899
:101DBC0003F0B0FB0346002B01D000F0C3F8002366
:101DCC003B6000237B603B461946064803F0E6FE69
:101DDC000346002B01D000F0B5F800BF1837BD4604
:101DEC0080BD00BF200900200004004080B588B0F1
:101DFC0000AF07F1100300221A605A609A60DA6093
:101E0C004C4B9B694B4A43F010039361494B9B69C4
:101E1C0003F01003FB60FB68464B9B69454A43F09B
:101E2C0020039361434B9B6903F02003BB60BB68A9
:101E3C00404B9B693F4A43F0040393613D4B9B69C4
:101E4C0003F004037B607B6800224FF480413A4826
:101E5C0001F0DDFF002241F21001384801F0D7FFFC
:101E6C004FF480433B6101237B610223BB6102235E
:101E7C00FB6107F1100319462F4801F02DFE0223D8
:101E8C003B612F4B7B610123BB6107F110031946AA
:101E9C002A4801F021FE01233B6100237B610223D0
:101EAC00BB6107F110031946244801F015FE41F2FD
:101EBC0010033B6101237B610023BB610223FB61A7
:101ECC0007F1100319461D4801F006FE4FF400738C
:101EDC003B6102237B610323FB6107F1100319466D
:101EEC00164801F0F9FD4FF480633B6100237B61E0
:101EFC000023BB6107F110031946104801F0ECFDFB
:101F0C004FF400533B6100237B610023BB6107F15D
:101F1C0010031946094801F0DFFD002200210720BB
:101F2C0001F02BFD072001F044FD00BF2037BD461A
:101F3C0080BD00BF001002400010014000080140AD
:101F4C000000111080B400AF72B600BFFEE780B481
:101F5C0083B000AF78607B6800225A6000BF0C37FA
:101F6C00BD4680BC7047000080B485B000AF78607F
:101F7C007B685A68054B1B68D31AFB60FB68DB0F48
:101F8C00DBB218461437BD4680BC70471C0A0020D3
:101F9C0080B483B000AF78603960054B1A683B6839
:101FAC001A447B685A6000BF0C37BD4680BC704732
:101FBC001C0A002080B483B000AF786039603B68A5
:101FCC004FF47A7203FB02F2044B1B681A447B68D1
:101FDC005A6000BF0C37BD4680BC70471C0A0020FD
:101FEC0080B485B000AF78607B685A68054B1B687D
:101FFC00D31AFB60FB6823EAE37318461437BD461B
:10200C0080BC70471C0A002080B483B000AF78609D
:10201C0039607B683A681A607B68064A5A607B684C
:10202C00054A9A607B68054ADA6000BF0C37BD46EA
:10203C0080BC70474D2000089F200008DF2000085E
:10204C0080B584B000AFF860B9607A60FB681B683B
:10205C009B000133DB0003F54073184600F02CFEA7
:10206C000346172B11D1FB681B68DBB2184600F036
:10207C00C8FF0346002B08D0FB681B687A68B96858
:10208C00184600F04BFC0346FFE718461037BD46D8
:10209C0080BD80B584B000AFF860B9607A60FB6831
:1020AC001B689B000133DB0003F54073184600F0FE
:1020BC0003FE0346172B08D1FB681B687A68B968C6
:1020CC00184600F031FB0346FFE718461037BD46B3
:1020DC0080BD80B582B000AF78607B681B68184605
:1020EC0000F0ACFA00BF0837BD4680BD80B586B0A5
:1020FC0000AFF860B9607A605B23FB75FB68186809
:10210C00FA7D0023012100F039F838613B69002B7E
:10211C0009DAFB681B68184600F046F94FF4FA70B0
:10212C0001F030FB24E000BFFB681B689B0001330F
:10213C00DB0003F54073184600F0BEFD0346132B7D
:10214C00F2D1FB681B687A68B968184600F09AF9F6
:10215C0038613B69002B09DAFB681B68184600F0F4
:10216C0023F94FF4FA7001F00DFB01E0012300E0BC
:10217C00C4E718461837BD4680BD000090B585B041
:10218C0000AF0446084611461A462346FB71034627
:10219C00BB710B46BB801346FB70FB79082B02D935
:1021AC004FF0FF33F2E0BB79012B05D0002B11DD92
:1021BC00023B022B0ED811E007F10C030422194646
:1021CC004FF4706000F012FEFB68002B05D16FF02D
:1021DC000203DBE06FF00403D8E000BFFB7803F0F0
:1021EC000403002B02D06FF00503CFE0FB78002B2B
:1021FC0025D0BB79012B02D0022B08D024E0FB7830
:10220C0003F02103002B1CD16FF00503BEE0FB781B
:10221C0003F02003002B06D097F90330002B02DBD0
:10222C006FF00503B2E0FB7803F01003002B0AD02B
:10223C0097F90330002B06DB6FF00503A6E000BF17
:10224C0002E000BF00E000BFFB79184600F0ACF8DC
:10225C00FB799B000133DB00184697F9033023F020
:10226C000F035AB297F9063013435BB2DBB219462F
:10227C0000F06EFDBB88002B10D1464B1B885A1CFE
:10228C0091B2444A1180BB80424B1B884FF6F072CE
:10229C00934203D13F4B4FF440421A80FB799B0091
:1022AC000133DB0003F580631A46BB881B0A9BB223
:1022BC00DBB21946104600F04BFDFB799B00013355
:1022CC00DB0003F5A0631A46BB88DBB21946104647
:1022DC0000F03EFDFB799B000133DB0003F58073BE
:1022EC000121184600F034FD00BFFB799B0001333F
:1022FC00DB0003F58073184600F0DEFC0346002B70
:10230C00F3D1FB79012202FA03F31BB2DB431AB2BD
:10231C00214B1B881BB213401BB29AB21E4B1A8066
:10232C00FB7803F00102FB7902FA03F31AB21A4BA1
:10233C001B881BB213431BB29AB2174B1A80FB7942
:10234C00012202FA03F31BB2DB431AB2134B1B88B4
:10235C001BB213401BB29AB2104B1A80FB79104A75
:10236C00002122F81310FB790E4A0021D15400BF32
:10237C00FB799B000133DB0003F54073184600F03A
:10238C009BFC0346002BF3D097F907301846143703
:10239C00BD4690BD08000020200A0020220A002023
:1023AC00240A0020340A002080B582B000AF034616
:1023BC00FB71FB79082B02D94FF0FF3355E0FB7909
:1023CC009B000133DB0003F580731021184600F0ED
:1023DC00BFFC00BFFB799B000133DB0003F580736E
:1023EC00184600F069FC0346002BF3D1FB799B00E7
:1023FC000133DB0003F500731F21184600F0A8FC25
:10240C00FB79012202FA03F31BB2DB431AB2194B1C
:10241C001B881BB213401BB29AB2164B1A80FB7965
:10242C00012202FA03F31BB2DB431AB2124B1B88D4
:10243C001BB213401BB29AB20F4B1A80FB790F4A96
:10244C00002122F81310FB790D4A0021D15400BF52
:10245C00FB799B000133DB0003F54073184600F059
:10246C002BFC0346002BF3D1012318460837BD463D
:10247C0080BD00BF200A0020220A0020240A002070
:10248C00340A002080B584B000AF03463960FB717C
:10249C001346BB80FB79082B02D94FF0FF33C6E003
:1024AC00FB799B000133DB00184600F005FC03466A
:1024BC0003F00F03012B02D06FF00403B7E0FB799C
:1024CC009B000133DB0003F54073184600F0F4FB6E
:1024DC000346132B02D06FF00203A8E03B681B7875
:1024EC00FB60FB681B023A68013212781344FB60F4
:1024FC00FB681B023A68023212781344FB60FB68DB
:10250C001B023A68033212781344FB60FB68B3F188
:10251C00FF3F02D0FB68002B02D16FF00B0386E06B
:10252C00BB88002B02D16FF00A0380E0FB799B0083
:10253C000133DB0003F5406304223968184600F0D0
:10254C00B5FCFB799B000133DB0003F580531A4685
:10255C00BB881B0A9BB2DBB21946104600F0F8FB95
:10256C00FB799B000133DB0003F588531A46BB88CB
:10257C00DBB21946104600F0EBFBFB799B000133F4
:10258C00DB0003F580730421184600F0E1FB00BF6B
:10259C00FB799B000133DB0003F58073184600F0D8
:1025AC008BFB0346002BF3D1234B1B881A46FB797C
:1025BC0042FA03F303F00103002B2BD0002336E087
:1025CC00FB799B000133DB0003F50073184600F028
:1025DC0073FB034603F00803002B0CD0FB799B0024
:1025EC000133DB0003F500730821184600F0B0FB43
:1025FC006FF00C031BE0FB799B000133DB0003F550
:10260C004073184600F058FB0346002B02D16FF0C4
:10261C0003030CE0FB799B000133DB0003F54073F3
:10262C00184600F049FB0346172BC9D10123184665
:10263C001037BD4680BD00BF200A002080B582B097
:10264C0000AF0346FB71FB79082B02D94FF0FF3327
:10265C0062E0FB799B000133DB00184600F02CFB99
:10266C00034603F00F03012B02D06FF0040353E079
:10267C00FB799B000133DB0003F5807308211846BE
:10268C0000F066FB00BFFB799B000133DB0003F518
:10269C008073184600F010FB0346002BF3D1FB7936
:1026AC00012202FA03F31BB2DB431AB21C4B1B8848
:1026BC001BB213401BB29AB2194B1A80194B1B88D0
:1026CC001A46FB7942FA03F303F00103002B16D0F0
:1026DC00002321E0FB799B000133DB0003F5007341
:1026EC00184600F0E9FA034603F00803002B06D065
:1026FC00FB791846FFF758FE6FF00C030CE0FB79E2
:10270C009B000133DB0003F54073184600F0D4FA4C
:10271C000346002BDED1012318460837BD4680BD89
:10272C00220A0020200A002080B584B000AF0346A6
:10273C003960FB711346BB800023FB730023BB8104
:10274C00FB79082B02D94FF0FF33DEE0FB799B00BD
:10275C000133DB00184600F0AFFA034603F00F0319
:10276C00012B02D06FF00403CFE0BB88002B02D109
:10277C006FF00D03C9E0FB799B000133DB0003F51F
:10278C004073184600F098FA0346FB73FB7B172B3B
:10279C0005D0FB7B1C2B02D06FF00603B5E05D4B24
:1027AC001B881A46FB7942FA03F303F00103002B52
:1027BC0039D0FB799B000133DB0003F5007318461D
:1027CC0000F07AFA034603F01F03FB73FB7B03F064
:1027DC001003002B19D0FB799B000133DB0003F5B0
:1027EC0000731021184600F0B3FAFB79012202FAAB
:1027FC0003F31BB2DB431AB2464B1B881BB21340CC
:10280C001BB29AB2434B1A800DE0FB7B03F008031A
:10281C00002B06D0FB791846FFF7C6FD6FF00C03B2
:10282C0073E0002371E0FB799B000133DB0003F5BF
:10283C00F853184600F040FA03469BB29B02BB814A
:10284C00BA88BB899A4201D9BB89BB80FB791846EF
:10285C0000F08CFB0346BB81FB799B000133DB0052
:10286C0003F54073184600F027FA0346FB73FB7B15
:10287C00172B09D0FB7B1C2B06D0FB791846FFF7D6
:10288C0093FD6FF0060340E0234B1B881A46FB793F
:10289C0042FA03F303F00103002B05D0BA88BB897D
:1028AC009A4201D9002330E0BA88BB899A4200D9F8
:1028BC00CCE700BFBA88FB793968184600F0ECFB0E
:1028CC00FB799B000133DB0003F580732021184654
:1028DC0000F03EFA00BFFB799B000133DB0003F5EF
:1028EC008073184600F0E8F90346002BF3D1FB790E
:1028FC00012202FA03F31AB2064B1B881BB21343D4
:10290C001BB29AB2034B1A80BB8818461037BD46CF
:10291C0080BD00BF220A0020200A002090B585B09F
:10292C0000AF03463960FB711346BB800023FB7379
:10293C000023BB81FB79082B02D94FF0FF339CE0BD
:10294C00FB799B000133DB00184600F0B5F9034618
:10295C0003F00F03012B02D06FF004038DE0BB8852
:10296C00002B02D16FF00D0387E0FB799B00013344
:10297C00DB0003F5F053184600F09EF903469BB2BA
:10298C009B02BB81BA89BB889A4201D2BB89BB80AE
:10299C00FB79184600F035FB0346BB81FB799B00A5
:1029AC000133DB0003F54073184600F085F903464C
:1029BC00FB73FB7B172B26D0FB7B1C2B1CD1BB8901
:1029CC00002B33D1FB79184600F0D0FA03461C4695
:1029DC00FB799B000133DB0003F5F853184600F03C
:1029EC006BF903469B029C420DD1FB791846FFF70D
:1029FC00DBFC6FF0060340E0FB791846FFF7D4FCD4
:102A0C006FF0060339E01F4B1B881A46FB7942FA1C
:102A1C0003F303F00103002B04D0BB89002B01D17D
:102A2C0000232AE0BB89002B02D1B1E700BF00E0F4
:102A3C0000BFBA89BB889A4201D2BB89BB80BA88D5
:102A4C00FB793968184600F083FBFB799B00013356
:102A5C00DB0003F580734021184600F079F900BFC4
:102A6C00FB799B000133DB0003F58073184600F003
:102A7C0023F90346002BF3D1BB8818461437BD4607
:102A8C0090BD00BF200A002080B483B000AF0E4B75
:102A9C009B690D4A43F0010393610B4B9B6903F057
:102AAC0001037B607B68084BDB69074A43F080536A
:102ABC00D361054BDB6903F080533B603B6800BF7F
:102ACC000C37BD4680BC70470010024080B588B002
:102ADC0000AF786007F1100300221A605A609A6008
:102AEC00DA607B681B681F4A934237D11E4B9B6987
:102AFC001D4A43F4805393611B4B9B6903F4805331
:102B0C00FB60FB68184B9B69174A43F00403936105
:102B1C00154B9B6903F00403BB60BB68A0233B61AE
:102B2C0002237B610323FB6107F1100319460F4855
:102B3C0000F0D2FF40233B6100237B610023BB618B
:102B4C0007F110031946094800F0C6FF00220021C6
:102B5C00232000F012FF232000F02BFF00BF2037B2
:102B6C00BD4680BD0030014000100240000801400D
:102B7C0080B584B000AF78607B681B680D4A9342C7
:102B8C0013D10D4BDB690C4A43F00203D3610A4BA2
:102B9C00DB6903F00203FB60FB68002200211D20AF
:102BAC0000F0EBFE1D2000F004FF00BF1037BD4607
:102BBC0080BD00BF000400400010024080B400AF94
:102BCC00FEE780B400AFFEE780B400AFFEE780B450
:102BDC0000AFFEE780B400AFFEE780B400AF00BFEB
:102BEC00BD4680BC704780B400AF00BFBD4680BC02
:102BFC00704780B400AF00BFBD4680BC704780B545
:102C0C0000AF00F0A3FD00BF80BD80B500AF022077
:102C1C0001F02EF900BF80BD80B500AF024802F074
:102C2C00D2FC00BF80BD00BF2009002080B500AFE2
:102C3C00024802F0A3F900BF80BD00BFC80000200D
:102C4C0080B586B000AF7860144A154BD31A7B61FF
:102C5C007B693B61134B1B68002B02D1114B124A51
:102C6C001A60104B1A687B6813443A699A4207D26F
:102C7C0003F004F803460C221A604FF0FF3309E00E
:102C8C00084B1B68FB60074B1A687B681344054AAA
:102C9C001360FB6818461837BD4680BD00500020F5
:102CAC00000400003C0A0020600A002080B400AF41
:102CBC0000BFBD4680BC704780B584B000AF786063
:102CCC00224BDB689847214B5B6998471F4B5B6A2B
:102CDC00002B03D01D4B9B6A002B14D11B4B1B6A82
:102CEC007A68120CD2B210469847184B1B6A7A6855
:102CFC00120AD2B210469847144B1B6A7A68D2B2A9
:102D0C001046984711E07B681B0CDBB23B737B6869
:102D1C001B0ADBB27B737B68DBB2BB730B4B9B6A0E
:102D2C0007F10C02032110469847084BDB699847C2
:102D3C000346FB73054B9B699847044B1B699847EB
:102D4C00FB7B18461037BD4680BD00BF100000202D
:102D5C0080B584B000AF78600B46FB70224BDB680B
:102D6C009847214B5B6998477B6843F004037B6071
:102D7C001D4B9B6A002B19D11B4B1B6A7A68120CDA
:102D8C00D2B210469847184B1B6A7A68120AD2B214
:102D9C0010469847144B1B6A7A68D2B21046984773
:102DAC00114B1B6AFA781046984713E07B681B0C92
:102DBC00DBB23B737B681B0ADBB27B737B68DBB2D9
:102DCC00BB73FB78FB73084B9B6A07F10C02042165
:102DDC0010469847044B9B699847034B1B699847CF
:102DEC0000BF1037BD4680BD1000002090B587B0E5
:102DFC0000AFF860B9601346FB802B4BDB6898473B
:102E0C00294B5B699847284B5B6A002B03D0264BF8
:102E1C009B6A002B26D1244B1B6AFA68120CD2B287
:102E2C0010469847204B1B6AFA68120AD2B2104619
:102E3C0098471D4B1B6AFA68D2B21046984700237C
:102E4C00FB820AE0184BDB69FA8AB9688C18984740
:102E5C0003462370FB8A0133FB82FA8AFB889A4271
:102E6C00F0D317E0FB681B0CDBB23B74FB681B0A4E
:102E7C00DBB27B74FB68DBB2BB740B4B9B6A07F158
:102E8C001002032110469847074B5B6AFA881146DB
:102E9C00B8689847044B9B699847034B1B69984744
:102EAC0000BF1C37BD4690BD1000002080B586B019
:102EBC0000AFF860B9601346FB802B4BDB6898477A
:102ECC00294B5B699847FB6843F00403FB60264B76
:102EDC009B6A002B26D1244B1B6AFA68120CD2B2C7
:102EEC0010469847204B1B6AFA68120AD2B2104659
:102EFC0098471D4B1B6AFA68D2B2104698470023BC
:102F0C00FB820AE0184B1B6AFA8AB9680A441278E9
:102F1C0010469847FB8A0133FB82FA8AFB889A4257
:102F2C00F0D317E0FB681B0CDBB23B74FB681B0A8D
:102F3C00DBB27B74FB68DBB2BB740B4B9B6A07F197
:102F4C001002032110469847074B9B6AFA881146DA
:102F5C00B8689847044B9B699847034B1B69984783
:102F6C0000BF1837BD4680BD1000002090B585B05D
:102F7C0000AF0346FB710023FB810023BB81FB796F
:102F8C009B000133DB0003F500531846FFF794FE5A
:102F9C000346BB81BB891B029CB2FB799B000133AE
:102FAC00DB0003F504531846FFF786FE03469BB27D
:102FBC002344BB81BB89002B1AD0FB799B000133C6
:102FCC00DB0003F500531846FFF776FE0346FB8142
:102FDC00FB891B029CB2FB799B000133DB0003F5E0
:102FEC0004531846FFF768FE03469BB22344FB814B
:102FFC00FA89BB899A42C2D1FB8918461437BD465F
:10300C0090BD90B585B000AF0346FB710023FB81EA
:10301C000023BB81FB799B000133DB0003F51853C4
:10302C001846FFF749FE0346BB81BB891B029CB2C5
:10303C00FB799B000133DB0003F51C531846FFF7AB
:10304C003BFE03469BB22344BB81BB89002B1AD0A9
:10305C00FB799B000133DB0003F518531846FFF78F
:10306C002BFE0346FB81FB891B029CB2FB799B0068
:10307C000133DB0003F51C531846FFF71DFE034616
:10308C009BB22344FB81FA89BB899A42C2D1FB894A
:10309C0018461437BD4690BD90B585B000AF0346B9
:1030AC003960FB711346BB800023FB810023BB609E
:1030BC00BB88002B48D0FB799B000133DB0003F568
:1030CC0010531846FFF7F8FD03469BB21B029CB247
:1030DC00FB799B000133DB0003F514531846FFF713
:1030EC00EBFD03469BB22344FB81FB891B02FA795F
:1030FC0092000232D2001344BB60BB881A46396876
:10310C00B868FFF7D3FEFA89BB881344FB81FB79BF
:10311C009B000133DB0003F510531A46FB891B0A95
:10312C009BB2DBB219461046FFF712FEFB799B00EF
:10313C000133DB0003F514531A46FB89DBB2194645
:10314C001046FFF705FE00E000BF1437BD4690BDEA
:10315C0090B585B000AF03463960FB711346BB8058
:10316C000023FB810023BB60BB88002B48D0FB797C
:10317C009B000133DB0003F520531846FFF79CFD41
:10318C0003469BB21B029CB2FB799B000133DB0014
:10319C0003F524531846FFF78FFD03469BB22344D7
:1031AC00FB81FB891B02FA7992000332D200134493
:1031BC00BB60BB881A463968B868FFF717FEFA89F6
:1031CC00BB881344FB81FB799B000133DB0003F5C7
:1031DC0020531A46FB891B0A9BB2DBB219461046D8
:1031EC00FFF7B6FDFB799B000133DB0003F524539D
:1031FC001A46FB89DBB219461046FFF7A9FD00E021
:10320C0000BF1437BD4690BD80B500AF0022102121
:10321C00024800F0FCFD00BF80BD00BF000801406B
:10322C0080B500AF01221021024800F0F0FD00BF74
:10323C0080BD00BF0008014080B582B000AFF91D11
:10324C004FF0FF330122044801F0CFFBFB79184605
:10325C000837BD4680BD00BFC800002080B582B0D5
:10326C0000AF0346FB71F91D4FF0FF3301220348F9
:10327C0001F078FA00BF0837BD4680BDC8000020B9
:10328C0080B58CB000AFF860B9607A603B601E4AC4
:10329C0007F1280392E8030083E803001B491C484C
:1032AC0000F080F81B491C4800F0A0F807F1280238
:1032BC0007F128031146184600F010F907F1100326
:1032CC0000221A605A609A60DA601A61C3F81320FF
:1032DC00FA6807F110031068186092889A80BB682E
:1032EC001B68C7F816307B681B68C7F81A303B6838
:1032FC001B68C7F81E3007F11003184600F07AF966
:10330C0000BF3037BD4680BD286700082D3200084D
:10331C0015320008693200084532000880B400AF4D
:10332C0000BFBD4680BC704780B400AF00BFBD4637
:10333C0080BC704780B400AF00BFBD4680BC7047F6
:10334C0080B400AF00BFBD4680BC704780B483B072
:10335C0000AF78607B681B78DBB218460C37BD4633
:10336C0080BC704780B483B000AF78600B46FB70B4
:10337C007B68FA781A7000BF0C37BD4680BC70476A
:10338C0080B400AF00231846BD4680BC704780B4A3
:10339C0083B000AF0346FB7100BF0C37BD4680BC49
:1033AC007047000080B483B000AF786039607B68F0
:1033BC00002B02D03B68002B06D1094B094A5A61FD
:1033CC00074B094A9A6106E0054A7B685361044A37
:1033DC003B68936100BF00BF0C37BD4680BC704793
:1033EC0010000020413300084D33000880B483B036
:1033FC0000AF7860396000BF0F4B1B8803F400737B
:10340C00002BF9D07B68002B02D03B68002B06D137
:10341C00094B0A4ADA61084B094A1A6206E0064A65
:10342C007B68D361044A3B68136200BF00BF0C3752
:10343C00BD4680BC704700BF100000208D330008D3
:10344C009B33000880B586B000AF3B1D06221946A1
:10345C004FF41060FFF7CAFC07F11403042219465D
:10346C004FF48070FFF7C2FC07F1100304221946D9
:10347C004FF4A060FFF7BAFC07F10C0304221946C5
:10348C004FF47060FFF7B2FC80210020FFF760FC66
:10349C000020FFF711FC3B1D062219464FF410606B
:1034AC00FFF704FD07F11403042219464FF4807052
:1034BC00FFF7FCFC07F11003042219464FF4A0603F
:1034CC00FFF7F4FC07F10C03042219464FF470606B
:1034DC00FFF7ECFC00BF1837BD4680BD80B584B04B
:1034EC0000AF786039600023BB73FFF7ABFF7B68DC
:1034FC00002B3BD00023BB730023FB7315E097F923
:10350C000F307A6813441A78BB7B1344DBB2BB735D
:10351C0097F90E30102B02DD4FF0FF3366E097F970
:10352C000F30DBB20133DBB2FB7397F90F30072B93
:10353C00E5DD0023FB7315E097F90F309B00013399
:10354C00DB0003F5F853184697F90F307A681344EB
:10355C001B781946FFF7FCFB97F90F30DBB20133F0
:10356C00DBB2FB7397F90F30072BE5DD3B68002BC3
:10357C003BD00023BB730023FB7315E097F90F308E
:10358C003A6813441A78BB7B1344DBB2BB7397F9CC
:10359C000E30102B02DD4FF0FF3327E097F90F3080
:1035AC00DBB20133DBB2FB7397F90F30072BE5DD90
:1035BC000023FB7315E097F90F309B000133DB0000
:1035CC0003F5F053184697F90F303A6813441B78FB
:1035DC001946FFF7BDFB97F90F30DBB20133DBB2B5
:1035EC00FB7397F90F30072BE5DD002318461037D6
:1035FC00BD4680BD80B582B000AF78607B68062286
:10360C0019464FF41060FFF751FC7B680E3304220F
:10361C0019464FF48070FFF749FC7B680A3304228B
:10362C0019464FF4A060FFF741FC7B680633042277
:10363C0019464FF47060FFF739FC7B689A7C0B4B92
:10364C001A707B68DA7C094B5A707B681A7D074BC1
:10365C009A707B685A7D054BDA707B689A7D044BB7
:10366C001A7000BF0837BD4680BD00BF400A00205D
:10367C00440A0020FFF71AFB0B480C490C4A0023A4
:10368C0002E0D458C4500433C4188C42F9D3094A0C
:10369C00094C002301E013600432A242FBD302F078
:1036AC00F3FAFEF7FFF9704700000020A800002095
:1036BC0090670008A80000205C0A0020FEE70000CC
:1036CC0080B500AF084B1B68074A43F0100313602A
:1036DC00032000F047F90F2000F008F8FFF7D4F9A9
:1036EC000023184680BD00BF0020024080B582B088
:1036FC0000AF7860124B1A68124B1B7819464FF4C6
:10370C007A73B3FBF1F3B2FBF3F3184600F05FF9F5
:10371C000346002B01D001230EE07B680F2B0AD847
:10372C00002279684FF0FF3000F027F9064A7B68D9
:10373C001360002300E0012318460837BD4680BD06
:10374C000C000020400000203C00002080B400AFA2
:10375C00054B1B781A46054B1B681344034A136030
:10376C0000BFBD4680BC704740000020480A0020C6
:10377C0080B400AF024B1B681846BD4680BC704736
:10378C00480A002080B584B000AF7860FFF7F0FFE6
:10379C00B8607B68FB60FB68B3F1FF3F05D00A4B58
:1037AC001B781A46FB681344FB6000BFFFF7E0FF71
:1037BC000246BB68D31AFA689A42F7D800BF00BF1A
:1037CC001037BD4680BD00BF4000002080B485B0DE
:1037DC0000AF78607B6803F00703FB600C4BDB6881
:1037EC00BB60BA684FF6FF031340BB60FB681A025C
:1037FC00BB68134343F0BF6343F40033BB60044A1C
:10380C00BB68D36000BF1437BD4680BC704700BF97
:10381C0000ED00E080B400AF044BDB681B0A03F042
:10382C0007031846BD4680BC704700BF00ED00E0A2
:10383C0080B483B000AF0346FB7197F90730002BBF
:10384C000BDBFB7903F01F02064997F907305B0984
:10385C00012000FA02F241F8232000BF0C37BD46CC
:10386C0080BC704700E100E080B483B000AF034639
:10387C003960FB7197F90730002B0ADB3B68DAB231
:10388C000C4997F907301201D2B20B4483F800238C
:10389C000AE03B68DAB20849FB7903F00F03043BFA
:1038AC001201D2B20B441A7600BF0C37BD4680BC55
:1038BC00704700BF00E100E000ED00E080B489B08B
:1038CC0000AFF860B9607A60FB6803F00703FB6136
:1038DC00FB69C3F10703042B28BF0423BB61FB69FD
:1038EC000433062B02D9FB69033B00E000237B6108
:1038FC004FF0FF32BB6902FA03F3DA43BB681A409C
:10390C007B699A404FF0FF317B6901FA03F3D9438D
:10391C007B680B40134318462437BD4680BC704768
:10392C0080B582B000AF78607B68013BB3F1807FDB
:10393C0001D301230FE00A4A7B68013B53600F213E
:10394C004FF0FF30FFF790FF054B00229A60044BBD
:10395C0007221A60002318460837BD4680BD00BFF9
:10396C0010E000E080B582B000AF78607868FFF7B7
:10397C002DFF00BF0837BD4680BD80B586B000AFB7
:10398C000346B9607A60FB7300237B61FFF742FF4B
:10399C0078617A68B9687869FFF790FF024697F901
:1039AC000F3011461846FFF75FFF00BF1837BD46B2
:1039BC0080BD80B582B000AF0346FB7197F907302C
:1039CC001846FFF735FF00BF0837BD4680BD80B5F0
:1039DC0082B000AF78607868FFF7A2FF0346184604
:1039EC000837BD4680BD000080B584B000AF78605C
:1039FC000023FB737B6893F82130DBB2022B05D0DC
:103A0C007B6804229A630123FB7351E07B681B687B
:103A1C001A687B681B6822F00E021A607B681B68B0
:103A2C001A687B681B6822F001021A607B681B68AD
:103A3C00224A934229D07B681B68214A934222D0A8
:103A4C007B681B681F4A93421AD07B681B681E4A0E
:103A5C00934212D07B681B681C4A93420AD07B6845
:103A6C001B681B4A934202D14FF480130EE04FF0B7
:103A7C0080730BE04FF4803308E04FF4805305E083
:103A8C004FF4807302E0102300E00123114A5360CD
:103A9C007B68012283F821207B68002283F8202098
:103AAC007B685B6B002B03D07B685B6B78689847FB
:103ABC00FB7B18461037BD4680BD00BF0800024096
:103ACC001C000240300002404400024058000240FA
:103ADC006C0002400000024080B48BB000AF7860F4
:103AEC00396000237B6200233B6269E101227B6A1F
:103AFC0002FA03F3FB613B681B68FA691340BB6174
:103B0C00BA69FB699A4240F058813B685B689A4AF3
:103B1C0093425ED0984A934275D8984A934258D0B3
:103B2C00964A93426FD8964A934252D0944A934203
:103B3C0069D8944A93424CD0924A934263D8924AA1
:103B4C00934246D0904A93425DD8122B2AD8122B1E
:103B5C0059D801A252F823F0DF3B0008B93B00080A
:103B6C00CB3B00080D3C0008133C0008133C00083C
:103B7C00133C0008133C0008133C0008133C0008DD
:103B8C00133C0008133C0008133C0008133C0008CD
:103B9C00133C0008133C0008133C0008C13B000810
:103BAC00D53B0008794A934213D02CE03B68DB6884
:103BBC003B6229E03B68DB6804333B6224E03B68F2
:103BCC00DB6808333B621FE03B68DB680C333B620D
:103BDC001AE03B689B68002B02D104233B6213E084
:103BEC003B689B68012B05D108233B627B68FA6913
:103BFC001A6109E008233B627B68FA695A6103E0A9
:103C0C0000233B6200E000BFBB69FF2B01D87B683F
:103C1C0001E07B6804337B61BB69FF2B02D87B6AB4
:103C2C009B0002E07B6A083B9B003B617B691A6846
:103C3C000F213B6901FA03F3DB431A40396A3B69F4
:103C4C0001FA03F31A437B691A603B685B6803F063
:103C5C008053002B00F0B1804D4B9B694C4A43F0D4
:103C6C00010393614A4B9B6903F00103BB60BB6882
:103C7C00484A7B6A9B08023352F82330FB607B6A0C
:103C8C0003F003039B000F2202FA03F3DB43FA68F1
:103C9C001340FB607B68404A934213D07B683F4AD9
:103CAC0093420DD07B683E4A934207D07B683D4AD5
:103CBC00934201D1032306E0042304E0022302E033
:103CCC00012300E000237A6A02F003029200934081
:103CDC00FA681343FB602F497B6A9B080233FA682E
:103CEC0041F823203B685B6803F48013002B06D05B
:103CFC002D4B9A682C49BB6913438B6006E02A4B09
:103D0C009A68BB69DB43284913408B603B685B684E
:103D1C0003F40013002B06D0234BDA682249BB694D
:103D2C001343CB6006E0204BDA68BB69DB431E49CA
:103D3C001340CB603B685B6803F40033002B06D068
:103D4C00194B5A681849BB6913434B6006E0164B74
:103D5C005A68BB69DB43144913404B603B685B6892
:103D6C0003F48033002B21D00F4B1A680E49BB692A
:103D7C0013430B6021E000BF000032100000311033
:103D8C000000221000002110000012100000111081
:103D9C00001002400000014000080140000C0140EE
:103DAC000010014000140140000401400B4B1A6844
:103DBC00BB69DB43094913400B607B6A01337B62AF
:103DCC003B681A687B6A22FA03F3002B7FF48EAEF1
:103DDC0000BF00BF2C37BD4680BC704700040140BB
:103DEC0080B485B000AF78600B467B807B689A68A6
:103DFC007B881340002B02D00123FB7301E00023CE
:103E0C00FB73FB7B18461437BD4680BC704780B4EF
:103E1C0083B000AF78600B467B8013467B707B7859
:103E2C00002B03D07A887B681A6103E07B881A0424
:103E3C007B681A6100BF0C37BD4680BC704780B4EC
:103E4C0085B000AF78600B467B807B68DB68FB60DD
:103E5C007A88FB6813401A04FB68D9437B880B40B3
:103E6C001A437B681A6100BF1437BD4680BC70478B
:103E7C0080B582B000AF0346FB80084B5A69FB88C3
:103E8C001340002B06D0054AFB885361FB8818466B
:103E9C00FDF7D8FD00BF0837BD4680BD00040140CA
:103EAC0080B586B000AF78607B68002B01D1012310
:103EBC0072E27B681B6803F00103002B00F0878023
:103ECC00924B5B6803F00C03042B0CD08F4B5B689C
:103EDC0003F00C03082B12D18C4B5B6803F480337A
:103EEC00B3F5803F0BD1894B1B6803F40033002BD7
:103EFC006CD07B685B68002B68D101234CE27B683B
:103F0C005B68B3F5803F06D1804B1B687F4A43F456
:103F1C00803313602EE07B685B68002B0CD17B4BED
:103F2C001B687A4A23F480331360784B1B68774AFA
:103F3C0023F4802313601DE07B685B68B3F5A02F2E
:103F4C000CD1724B1B68714A43F4802313606F4B86
:103F5C001B686E4A43F4803313600BE06B4B1B6899
:103F6C006A4A23F480331360684B1B68674A23F456
:103F7C00802313607B685B68002B13D0FFF7F8FB82
:103F8C00386108E0FFF7F4FB02463B69D31A642B57
:103F9C0001D9032300E25D4B1B6803F40033002BB3
:103FAC00F0D014E0FFF7E4FB386108E0FFF7E0FB2A
:103FBC0002463B69D31A642B01D90323ECE1534B22
:103FCC001B6803F40033002BF0D100E000BF7B68CA
:103FDC001B6803F00203002B63D04C4B5B6803F0AF
:103FEC000C03002B0BD0494B5B6803F00C03082B24
:103FFC001CD1464B5B6803F48033002B16D1434B2A
:10400C001B6803F00203002B05D07B681B69012B96
:10401C0001D00123C0E13D4B1B6823F0F8027B6803
:10402C005B69DB00394913430B603AE07B681B6921
:10403C00002B20D0364B01221A60FFF799FB386118
:10404C0008E0FFF795FB02463B69D31A022B01D916
:10405C000323A1E12D4B1B6803F00203002BF0D0CE
:10406C002A4B1B6823F0F8027B685B69DB0027494D
:10407C0013430B6015E0264B00221A60FFF778FB08
:10408C00386108E0FFF774FB02463B69D31A022B38
:10409C0001D9032380E11D4B1B6803F00203002BA5
:1040AC00F0D17B681B6803F00803002B3AD07B68C7
:1040BC009B69002B19D0174B01221A60FFF758FB94
:1040CC00386108E0FFF754FB02463B69D31A022B18
:1040DC0001D9032360E10D4B5B6A03F00203002B53
:1040EC00F0D0012000F09CFA1CE00A4B00221A6070
:1040FC00FFF73EFB38610FE0FFF73AFB02463B69E6
:10410C00D31A022B08D9032346E100BF001002404A
:10411C000000424280044242924B5B6A03F002036D
:10412C00002BE9D17B681B6803F00403002B00F023
:10413C00A6800023FB758B4BDB6903F08053002BAF
:10414C000DD1884BDB69874A43F08053D361854B93
:10415C00DB6903F08053BB60BB680123FB75824BAA
:10416C001B6803F48073002B18D17F4B1B687E4AAD
:10417C0043F480731360FFF7FBFA386108E0FFF734
:10418C00F7FA02463B69D31A642B01D9032303E1E6
:10419C00754B1B6803F48073002BF0D07B68DB68D5
:1041AC00012B06D16F4B1B6A6E4A43F0010313625D
:1041BC002DE07B68DB68002B0CD16A4B1B6A694ACB
:1041CC0023F001031362674B1B6A664A23F0040356
:1041DC0013621CE07B68DB68052B0CD1614B1B6AFE
:1041EC00604A43F0040313625E4B1B6A5D4A43F062
:1041FC00010313620BE05B4B1B6A5A4A23F0010369
:10420C001362584B1B6A574A23F0040313627B68F2
:10421C00DB68002B15D0FFF7ABFA38610AE0FFF72B
:10422C00A7FA02463B69D31A41F28832934201D96C
:10423C000323B1E04B4B1B6A03F00203002BEED0BF
:10424C0014E0FFF795FA38610AE0FFF791FA02469D
:10425C003B69D31A41F28832934201D903239BE084
:10426C00404B1B6A03F00203002BEED1FB7D012BAC
:10427C0005D13C4BDB693B4A23F08053D3617B680F
:10428C00DB69002B00F08780364B5B6803F00C0376
:10429C00082B61D07B68DB69022B46D1334B0022A3
:1042AC001A60FFF765FA386108E0FFF761FA024619
:1042BC003B69D31A022B01D903236DE0294B1B68F0
:1042CC0003F00073002BF0D17B681B6AB3F5803FC1
:1042DC0008D1244B5B6823F400327B689B6821492E
:1042EC0013434B601F4B5B6823F474127B68196A91
:1042FC007B685B6A0B431B4913434B601B4B0122CE
:10430C001A60FFF735FA386108E0FFF731FA024618
:10431C003B69D31A022B01D903233DE0114B1B68D7
:10432C0003F00073002BF0D035E0104B00221A6024
:10433C00FFF71EFA386108E0FFF71AFA02463B69EC
:10434C00D31A022B01D9032326E0064B1B6803F07A
:10435C000073002BF0D11EE07B68DB69012B07D1C9
:10436C00012319E00010024000700040600042423E
:10437C000B4B5B68FB60FB6803F480327B681B6A49
:10438C009A4206D1FB6803F470127B685B6A9A420E
:10439C0001D0012300E0002318461837BD4680BD2C
:1043AC000010024080B584B000AF786039607B6843
:1043BC00002B01D10123D0E06A4B1B6803F00703EB
:1043CC003A689A4210D9674B1B6823F0070265497B
:1043DC003B6813430B60634B1B6803F007033A689D
:1043EC009A4201D00123B8E07B681B6803F00203FA
:1043FC00002B20D07B681B6803F00403002B05D036
:10440C00594B5B68584A43F4E06353607B681B6804
:10441C0003F00803002B05D0534B5B68524A43F45E
:10442C0060535360504B5B6823F0F0027B689B68D1
:10443C004D4913434B607B681B6803F00103002B51
:10444C0040D07B685B68012B07D1474B1B6803F49A
:10445C000033002B15D101237FE07B685B68022BB6
:10446C0007D1414B1B6803F00073002B09D10123CA
:10447C0073E03D4B1B6803F00203002B01D10123B9
:10448C006BE0394B5B6823F003027B685B68364951
:10449C0013434B60FFF76CF9F8600AE0FFF768F91B
:1044AC000246FB68D31A41F28832934201D90323A6
:1044BC0053E02D4B5B6803F00C027B685B689B0040
:1044CC009A42EBD1274B1B6803F007033A689A42D8
:1044DC0010D2244B1B6823F0070222493B6813437C
:1044EC000B60204B1B6803F007033A689A4201D01B
:1044FC00012332E07B681B6803F00403002B08D017
:10450C00194B5B6823F4E0627B68DB681649134344
:10451C004B607B681B6803F00803002B09D0124B1F
:10452C005B6823F460527B681B69DB000E49134304
:10453C004B6000F021F802460B4B5B681B0903F043
:10454C000F030A49CB5C22FA03F3094A1360094BA7
:10455C001B681846FFF7CAF8002318461037BD46EB
:10456C0080BD00BF002002400010024030670008F0
:10457C000C0000203C00002080B487B000AF00236A
:10458C00FB600023BB6000237B6100237B60002366
:10459C003B611E4B5B68FB60FB6803F00C03042B58
:1045AC0002D0082B03D027E0194B3B6127E0FB68B6
:1045BC009B0C03F00F03174AD35C7B60FB6803F47E
:1045CC008033002B10D0114B5B685B0C03F00103A4
:1045DC00114AD35CBB607B680D4A03FB02F2BB68DB
:1045EC00B2FBF3F37B6104E07B680C4A02FB03F340
:1045FC007B617B693B6102E0054B3B6100BF3B6922
:10460C0018461C37BD4680BC704700BF00100240E6
:10461C0000127A00406700085067000800093D004E
:10462C0080B485B000AF78600A4B1B680A4AA2FBC5
:10463C0003235B0A7A6802FB03F3FB6000BFFB6891
:10464C005A1EFA60002BF9D100BF00BF1437BD46CB
:10465C0080BC70470C000020D34D621080B582B036
:10466C0000AF78607B68002B01D1012376E07B687A
:10467C005B6A002B08D17B685B68B3F5827F09D03D
:10468C007B680022DA6105E07B6800221A617B6896
:10469C0000225A617B6800229A627B6893F8513041
:1046AC00DBB2002B06D17B68002283F8502078689F
:1046BC00FEF70CFA7B68022283F851207B681B689A
:1046CC001A687B681B6822F040021A607B685B6882
:1046DC0003F482727B689B6803F404431A437B687F
:1046EC00DB6803F400631A437B681B6903F0020365
:1046FC001A437B685B6903F001031A437B689B696F
:10470C0003F400731A437B68DB6903F038031A4324
:10471C007B681B6A03F0800342EA03017B689B6A97
:10472C0003F400527B681B680A431A607B689B6920
:10473C001A0C7B681B6802F004025A607B681B68C9
:10474C00DA697B681B6822F40062DA617B680022FC
:10475C005A657B68012283F85120002318460837DC
:10476C00BD4680BD80B588B000AFF860B9603B60D5
:10477C001346FB800023FB77FB6893F85030012B2A
:10478C0001D102232DE1FB68012283F85020FEF7B2
:10479C00EFFFB861FB88FB82FB6893F85130DBB20A
:1047AC00012B02D00223FB7716E1BB68002B02D051
:1047BC00FB88002B02D10123FB770DE1FB68032260
:1047CC0083F85120FB6800225A65FB68BA681A63AB
:1047DC00FB68FA889A86FB68FA88DA86FB680022FE
:1047EC009A63FB6800229A87FB680022DA87FB68D1
:1047FC0000225A64FB6800221A64FB689B68B3F5BC
:10480C00004F0FD1FB681B681A68FB681B6822F00D
:10481C0040021A60FB681B681A68FB681B6842F44C
:10482C0080421A60FB681B681B6803F04003402B36
:10483C0007D0FB681B681A68FB681B6842F04002D3
:10484C001A60FB68DB68B3F5006F4FD1FB685B68DF
:10485C00002B02D0FB8A012B42D1FB681B6B1A8800
:10486C00FB681B68DA60FB681B6B9A1CFB681A639D
:10487C00FB68DB8E9BB2013B9AB2FB68DA862FE0B9
:10488C00FB681B689B6803F00203022B12D1FB68C8
:10489C001B6B1A88FB681B68DA60FB681B6B9A1C25
:1048AC00FB681A63FB68DB8E9BB2013B9AB2FB6818
:1048BC00DA8615E0FEF75CFF0246BB69D31A3A684C
:1048CC009A4203D83B68B3F1FF3F02D13B68002BFF
:1048DC0006D10323FB77FB68012283F851207BE090
:1048EC00FB68DB8E9BB2002BCAD150E0FB685B6887
:1048FC00002B02D0FB8A012B44D1FB681A6BFB689E
:10490C001B680C3312781A70FB681B6B5A1CFB6803
:10491C001A63FB68DB8E9BB2013B9AB2FB68DA86AA
:10492C0030E0FB681B689B6803F00203022B13D179
:10493C00FB681A6BFB681B680C3312781A70FB68E7
:10494C001B6B5A1CFB681A63FB68DB8E9BB2013B2A
:10495C009AB2FB68DA8615E0FEF70AFF0246BB69DD
:10496C00D31A3A689A4203D83B68B3F1FF3F02D19D
:10497C003B68002B06D10323FB77FB68012283F8ED
:10498C00512029E0FB68DB8E9BB2002BC9D1BA69A0
:10499C003968F86800F0D0FC0346002B02D0FB68A5
:1049AC0020225A65FB689B68002B0AD100233B61CF
:1049BC00FB681B68DB683B61FB681B689B683B61A1
:1049CC003B69FB685B6D002B02D00123FB7703E096
:1049DC00FB68012283F85120FB68002283F85020E9
:1049EC00FB7F18462037BD4680BD80B588B002AF2E
:1049FC00F860B9603B601346FB800023FB75FB68D5
:104A0C0093F85130DBB2012B02D00223FB75FBE093
:104A1C00FB685B68B3F5827F12D1FB689B68002B47
:104A2C000ED1FB68042283F85120FA883B6800936E
:104A3C001346BA68B968F86800F0EFF80346E8E086
:104A4C00FB6893F85030012B01D10223E1E0FB68A5
:104A5C00012283F85020FEF78BFE3861BB68002BD7
:104A6C0002D0FB88002B02D10123FB75CCE0FB6844
:104A7C00042283F85120FB6800225A65FB68BA684F
:104A8C009A63FB68FA889A87FB68FA88DA87FB686E
:104A9C0000221A63FB6800229A86FB680022DA86E1
:104AAC00FB6800221A64FB6800225A64FB689B684E
:104ABC00B3F5004F0FD1FB681B681A68FB681B68C5
:104ACC0022F040021A60FB681B681A68FB681B68BE
:104ADC0022F480421A60FB681B681B6803F04003D9
:104AEC00402B07D0FB681B681A68FB681B6842F0F8
:104AFC0040021A60FB68DB68002B6AD132E0FB686D
:104B0C001B689B6803F00103012B15D1FB681B6824
:104B1C0003F10C02FB689B6B1278D2B21A70FB6823
:104B2C009B6B5A1CFB689A63FB68DB8F9BB2013B47
:104B3C009AB2FB68DA8715E0FEF71AFE02463B696B
:104B4C00D31A3A689A4203D83B68B3F1FF3F02D1BB
:104B5C003B68002B06D10323FB75FB68012283F80D
:104B6C00512051E0FB68DB8F9BB2002BC7D135E0A5
:104B7C00FB681B689B6803F00103012B13D1FB68D6
:104B8C001B68DA68FB689B6B92B21A80FB689B6BA4
:104B9C009A1CFB689A63FB68DB8F9BB2013B9AB251
:104BAC00FB68DA8715E0FEF7E3FD02463B69D31A92
:104BBC003A689A4203D83B68B3F1FF3F02D13B6895
:104BCC00002B06D10323FB75FB68012283F85120CF
:104BDC001AE0FB68DB8F9BB2002BC9D13A693968AC
:104BEC00F86800F057FB0346002B02D0FB6820222C
:104BFC005A65FB685B6D002B02D00123FB7503E04B
:104C0C00FB68012283F85120FB68002283F85020B6
:104C1C00FB7D18461837BD4680BD80B58CB000AF03
:104C2C00F860B9607A607B800123FB62002387F80F
:104C3C002B30FB6893F85030012B01D1022398E103
:104C4C00FB68012283F85020FEF792FD7862FB6826
:104C5C0093F8513087F82330FB685B68FB617B88E5
:104C6C007B8397F82330012B0FD0FB69B3F5827F40
:104C7C0007D1FB689B68002B03D197F82330042BDA
:104C8C0003D0022387F82B306DE1BB68002B05D0D5
:104C9C007B68002B02D07B88002B03D1012387F883
:104CAC002B3060E1FB6893F85130DBB2042B03D05E
:104CBC00FB68052283F85120FB6800225A65FB68CB
:104CCC007A689A63FB687A88DA87FB687A889A87AD
:104CDC00FB68BA681A63FB687A88DA86FB687A889C
:104CEC009A86FB6800221A64FB6800225A64FB68EF
:104CFC001B681B6803F04003402B07D0FB681B6844
:104D0C001A68FB681B6842F040021A60FB68DB689B
:104D1C00B3F5006F7CD1FB685B68002B02D07B8BFA
:104D2C00012B6AD1FB681B6B1A88FB681B68DA6065
:104D3C00FB681B6B9A1CFB681A63FB68DB8E9BB2CF
:104D4C00013B9AB2FB68DA8657E0FB681B689B68EC
:104D5C0003F00203022B1BD1FB68DB8E9BB2002BF2
:104D6C0016D0FB6A012B13D1FB681B6B1A88FB68EE
:104D7C001B68DA60FB681B6B9A1CFB681A63FB6888
:104D8C00DB8E9BB2013B9AB2FB68DA860023FB6296
:104D9C00FB681B689B6803F00103012B19D1FB68AE
:104DAC00DB8F9BB2002B14D0FB681B68DA68FB68A6
:104DBC009B6B92B21A80FB689B6B9A1CFB689A6384
:104DCC00FB68DB8F9BB2013B9AB2FB68DA8701234D
:104DDC00FB62FEF7CDFC02467B6AD31ABA6B9A4291
:104DEC000BD8BB6BB3F1FF3F07D0032387F82B30F5
:104DFC00FB68012283F85120B5E0FB68DB8E9BB287
:104E0C00002BA2D1FB68DB8F9BB2002B9DD180E0E5
:104E1C00FB685B68002B02D07B8B012B6FD1FB688E
:104E2C001A6BFB681B680C3312781A70FB681B6BCF
:104E3C005A1CFB681A63FB68DB8E9BB2013B9AB26F
:104E4C00FB68DA865BE0FB681B689B6803F0020377
:104E5C00022B1CD1FB68DB8E9BB2002B17D0FB6A9C
:104E6C00012B14D1FB681A6BFB681B680C3312788E
:104E7C001A70FB681B6B5A1CFB681A63FB68DB8E91
:104E8C009BB2013B9AB2FB68DA860023FB62FB689B
:104E9C001B689B6803F00103012B19D1FB68DB8FA6
:104EAC009BB2002B14D0FB681B68DA68FB689B6B09
:104EBC00D2B21A70FB689B6B5A1CFB689A63FB6836
:104ECC00DB8F9BB2013B9AB2FB68DA870123FB6252
:104EDC00FEF74EFC02467B6AD31ABA6B9A4203D891
:104EEC00BB6BB3F1FF3F02D1BB6B002B07D103238C
:104EFC0087F82B30FB68012283F8512033E0FB68E4
:104F0C00DB8E9BB2002B9ED1FB68DB8F9BB2002B00
:104F1C0099D17A6AB96BF86800F00EFA0346002B47
:104F2C0006D0012387F82B30FB6820225A651AE043
:104F3C00FB689B68002B0AD100237B61FB681B6814
:104F4C00DB687B61FB681B689B687B617B69FB682A
:104F5C005B6D002B03D0012387F82B3003E0FB683B
:104F6C00012283F85120FB68002283F8502097F827
:104F7C002B3018463037BD4680BD000080B588B058
:104F8C0000AF78607B681B685B68FB617B681B68A3
:104F9C009B68BB61BB699B0903F00103002B0FD11C
:104FAC00BB6903F00103002B0AD0FB699B0903F0DA
:104FBC000103002B04D07B681B6C78689847BEE01B
:104FCC00BB695B0803F00103002B0AD0FB69DB090A
:104FDC0003F00103002B04D07B685B6C7868984766
:104FEC00ADE0BB695B0903F00103002B06D1BB6983
:104FFC009B0903F00103002B00F0A180FB695B0906
:10500C0003F00103002B00F09A80BB699B0903F0AD
:10501C000103002B23D07B6893F85130DBB2032BB8
:10502C0011D07B685B6D43F004027B685A650023EA
:10503C007B617B681B68DB687B617B681B689B689A
:10504C007B617B690BE000233B617B681B68DB6841
:10505C003B617B681B689B683B613B696FE0BB698C
:10506C005B0903F00103002B14D07B685B6D43F0EC
:10507C0001027B685A650023FB607B681B689B6898
:10508C00FB607B681B681A687B681B6822F0400217
:10509C001A60FB687B685B6D002B4FD07B681B68CC
:1050AC005A687B681B6822F0E0025A607B68012218
:1050BC0083F85120FB6903F00203002B04D1FB6938
:1050CC0003F00103002B34D07B681B685A687B68A3
:1050DC001B6822F003025A607B68DB6C002B11D03A
:1050EC007B68DB6C174A5A637B68DB6C1846FEF7EF
:1050FC007BFC0346002B05D07B685B6D43F04002C4
:10510C007B685A657B689B6C002B16D07B689B6C0C
:10511C000C4A5A637B689B6C1846FEF765FC034689
:10512C00002B0AD07B685B6D43F040027B685A65AC
:10513C0003E0786800F008F800E000BF00BF2037FB
:10514C00BD4680BD6751000880B483B000AF786065
:10515C0000BF0C37BD4680BC704780B584B000AF33
:10516C0078607B685B6AFB60FB680022DA87FB680F
:10517C000022DA86F868FFF7E7FF00BF1037BD465C
:10518C0080BD000080B588B000AFF860B9603B60AE
:10519C001346FB71FEF7ECFA0246BB6A9B1A3A689F
:1051AC001344FB61FEF7E4FAB861394B1B685B01F1
:1051BC001B0DFA6902FB03F37B6154E03B68B3F10E
:1051CC00FF3F50D0FEF7D4FA0246BB69D31AFA69F6
:1051DC009A4202D9FB69002B3DD1FB681B685A68C7
:1051EC00FB681B6822F0E0025A60FB685B68B3F551
:1051FC00827F11D1FB689B68B3F5004F04D0FB682C
:10520C009B68B3F5806F07D1FB681B681A68FB6855
:10521C001B6822F040021A60FB689B6AB3F5005FC2
:10522C000FD1FB681B681A68FB681B6822F40052DC
:10523C001A60FB681B681A68FB681B6842F4005212
:10524C001A60FB68012283F85120FB68002283F866
:10525C005020032317E07B69002B01D10023FB6155
:10526C007B69013B7B61FB681B689A68BB681340D8
:10527C00BA689A420CBF01230023DBB21A46FB79B1
:10528C009A429BD1002318462037BD4680BD00BFF3
:10529C000C00002080B586B002AFF860B9607A606F
:1052AC00FB685B68B3F5827F11D1FB689B68B3F533
:1052BC00004F04D0FB689B68B3F5806F07D1FB6887
:1052CC001B681A68FB681B6822F040021A60FB68B6
:1052DC005B68B3F5827F17D1FB689B68B3F5806F71
:1052EC0012D17B680093BB6800220121F868FFF79C
:1052FC0049FF0346002B1AD0FB685B6D43F020027C
:10530C00FB685A65032313E07B680093BB6800229B
:10531C008021F868FFF736FF0346002B07D0FB68A7
:10532C005B6D43F02002FB685A65032300E0002309
:10533C0018461037BD4680BD80B586B002AFF86008
:10534C00B9607A607B680093BB6800228021F868A2
:10535C00FFF718FF0346002B07D0FB685B6D43F08B
:10536C002002FB685A65032300E00023184610371F
:10537C00BD4680BD80B582B000AF78607B68002BE5
:10538C0001D1012341E07B6893F83D30DBB2002B67
:10539C0006D17B68002283F83C207868FDF7E8FB97
:1053AC007B68022283F83D207B681A687B68043393
:1053BC001946104600F0FAFA7B68012283F8462061
:1053CC007B68012283F83E207B68012283F83F2012
:1053DC007B68012283F840207B68012283F84120FE
:1053EC007B68012283F842207B68012283F84320EA
:1053FC007B68012283F844207B68012283F84520D6
:10540C007B68012283F83D20002318460837BD46EF
:10541C0080BD000080B485B000AF78607B6893F8E5
:10542C003D30DBB2012B01D001233AE07B68022234
:10543C0083F83D207B681B68DA687B681B6842F048
:10544C000102DA607B681B68184A93420ED07B68B5
:10545C001B68B3F1804F09D07B681B68144A9342D8
:10546C0004D07B681B68134A934211D17B681B687C
:10547C009B6803F00703FB60FB68062B10D07B686E
:10548C001B681A687B681B6842F001021A6007E00F
:10549C007B681B681A687B681B6842F001021A6003
:1054AC00002318461437BD4680BC7047002C0140C1
:1054BC00000400400008004080B483B000AF786066
:1054CC007B681B68DA687B681B6822F00102DA6073
:1054DC007B681B681A6A41F211131340002B0FD121
:1054EC007B681B681A6A40F244431340002B07D1B7
:1054FC007B681B681A687B681B6822F001021A60C3
:10550C007B68012283F83D20002318460C37BD46EA
:10551C0080BC704780B582B000AF786039607B6822
:10552C00002B01D1012341E07B6893F83D30DBB2C5
:10553C00002B06D17B68002283F83C20786800F0B1
:10554C0039F87B68022283F83D207B681A687B68F7
:10555C0004331946104600F029FA7B681B681A6858
:10556C007B681B6822F008021A607B681B6819684C
:10557C007B681B683A680A431A607B68012283F8CF
:10558C0046207B68012283F83E207B68012283F849
:10559C003F207B68012283F842207B68012283F83C
:1055AC0043207B68012283F83D20002318460837EE
:1055BC00BD4680BD80B483B000AF786000BF0C37AF
:1055CC00BD4680BC704780B582B000AF78607B6808
:1055DC001B681B6903F00203022B22D17B681B683A
:1055EC00DB6803F00203022B1BD17B681B686FF096
:1055FC0002021A617B6801221A777B681B689B691F
:10560C0003F00303002B03D0786800F0B4F905E035
:10561C00786800F0A7F9786800F0B6F97B6800228A
:10562C001A777B681B681B6903F00403042B22D1D7
:10563C007B681B68DB6803F00403042B1BD17B68BD
:10564C001B686FF004021A617B6802221A777B6870
:10565C001B689B6903F44073002B03D0786800F03F
:10566C008AF905E0786800F07DF9786800F08CF92B
:10567C007B6800221A777B681B681B6903F00803A0
:10568C00082B22D17B681B68DB6803F00803082B0E
:10569C001BD17B681B686FF008021A617B680422BF
:1056AC001A777B681B68DB6903F00303002B03D0BC
:1056BC00786800F060F905E0786800F053F97868D4
:1056CC0000F062F97B6800221A777B681B681B6903
:1056DC0003F01003102B22D17B681B68DB6803F0EE
:1056EC001003102B1BD17B681B686FF010021A6122
:1056FC007B6808221A777B681B68DB6903F44073AC
:10570C00002B03D0786800F036F905E0786800F0DB
:10571C0029F9786800F038F97B6800221A777B68E1
:10572C001B681B6903F00103012B0ED17B681B68FE
:10573C00DB6803F00103012B07D17B681B686FF05A
:10574C0001021A617868FCF75BF97B681B681B69BE
:10575C0003F08003802B0ED17B681B68DB6803F0A1
:10576C008003802B07D17B681B686FF080021A6165
:10577C00786800F07AFA7B681B681B6903F04003B9
:10578C00402B0ED17B681B68DB6803F04003402B79
:10579C0007D17B681B686FF040021A61786800F0D3
:1057AC00FCF87B681B681B6903F02003202B0ED1CF
:1057BC007B681B68DB6803F02003202B07D17B6818
:1057CC001B686FF020021A61786800F045FA00BF80
:1057DC000837BD4680BD80B584B000AF78603960B5
:1057EC000023FB737B6893F83C30012B01D102231F
:1057FC00B4E07B68012283F83C207B68022283F8AA
:10580C003D207B681B689B68BB60BB6823F07703FB
:10581C00BB60BB6823F47F43BB607B681B68BA68C2
:10582C009A603B681B68B3F5005F3ED0B3F5005F30
:10583C0000F28780B3F5805F00F08680B3F5805F5F
:10584C007FD8702B1AD0702B7BD8602B50D0602B4C
:10585C0077D8502B3CD0502B73D8402B58D0402BA2
:10586C006FD8302B64D0302B6BD8202B60D0202BF2
:10587C0067D8002B5CD0102B5AD062E07B6818687C
:10588C003B6899683B685A683B68DB6800F067F9CD
:10589C007B681B689B68BB60BB6843F07703BB608D
:1058AC007B681B68BA689A604FE07B6818683B6835
:1058BC0099683B685A683B68DB6800F050F97B6874
:1058CC001B689A687B681B6842F480429A603CE0D3
:1058DC007B6818683B6859683B68DB681A4600F0BF
:1058EC00C7F87B681B685021184600F01EF92CE0A5
:1058FC007B6818683B6859683B68DB681A4600F09F
:10590C00E5F87B681B686021184600F00EF91CE076
:10591C007B6818683B6859683B68DB681A4600F07E
:10592C00A7F87B681B684021184600F0FEF80CE0D5
:10593C007B681A683B681B681946104600F0F5F83E
:10594C0003E00123FB7300E000BF7B68012283F8B6
:10595C003D207B68002283F83C20FB7B18461037E7
:10596C00BD4680BD80B483B000AF786000BF0C37FB
:10597C00BD4680BC704780B483B000AF786000BF78
:10598C000C37BD4680BC704780B483B000AF7860E4
:10599C0000BF0C37BD4680BC704780B483B000AFED
:1059AC00786000BF0C37BD4680BC704780B485B0B2
:1059BC0000AF786039607B681B68FB607B68294AA4
:1059CC0093420BD07B68B3F1804F07D07B68264A9B
:1059DC00934203D07B68254A934208D1FB6823F09D
:1059EC007003FB603B685B68FA681343FB607B6881
:1059FC001C4A93420BD07B68B3F1804F07D07B6875
:105A0C00194A934203D07B68184A934208D1FB6829
:105A1C0023F44073FB603B68DB68FA681343FB605C
:105A2C00FB6823F080023B685B691343FB607B6877
:105A3C00FA681A603B689A687B68DA623B681A6895
:105A4C007B689A627B68074A934203D13B681A6968
:105A5C007B681A637B6801225A6100BF1437BD460C
:105A6C0080BC7047002C014000040040000800403E
:105A7C0080B487B000AFF860B9607A60FB681B6ACD
:105A8C007B61FB681B6A23F00102FB681A62FB68EE
:105A9C009B693B613B6923F0F0033B617B681B0115
:105AAC003A6913433B617B6923F00A037B617A6992
:105ABC00BB6813437B61FB683A699A61FB687A693E
:105ACC001A6200BF1C37BD4680BC704780B487B0DB
